{
  "address": "0xDc64a140Aa3E981100a9becA4E685f962f0cF6C9",
  "abi": [
    {
      "inputs": [
        {
          "internalType": "address",
          "name": "target",
          "type": "address"
        }
      ],
      "name": "AddressEmptyCode",
      "type": "error"
    },
    {
      "inputs": [
        {
          "internalType": "address",
          "name": "implementation",
          "type": "address"
        }
      ],
      "name": "ERC1967InvalidImplementation",
      "type": "error"
    },
    {
      "inputs": [],
      "name": "ERC1967NonPayable",
      "type": "error"
    },
    {
      "inputs": [],
      "name": "FailedCall",
      "type": "error"
    },
    {
      "inputs": [],
      "name": "InvalidInitialization",
      "type": "error"
    },
    {
      "inputs": [],
      "name": "NotInitializing",
      "type": "error"
    },
    {
      "inputs": [
        {
          "internalType": "address",
          "name": "owner",
          "type": "address"
        }
      ],
      "name": "OwnableInvalidOwner",
      "type": "error"
    },
    {
      "inputs": [
        {
          "internalType": "address",
          "name": "account",
          "type": "address"
        }
      ],
      "name": "OwnableUnauthorizedAccount",
      "type": "error"
    },
    {
      "inputs": [],
      "name": "UUPSUnauthorizedCallContext",
      "type": "error"
    },
    {
      "inputs": [
        {
          "internalType": "bytes32",
          "name": "slot",
          "type": "bytes32"
        }
      ],
      "name": "UUPSUnsupportedProxiableUUID",
      "type": "error"
    },
    {
      "anonymous": false,
      "inputs": [
        {
          "indexed": true,
          "internalType": "address",
          "name": "auctionAddress",
          "type": "address"
        },
        {
          "indexed": false,
          "internalType": "uint256",
          "name": "auctionIndex",
          "type": "uint256"
        },
        {
          "indexed": true,
          "internalType": "address",
          "name": "nftAddress",
          "type": "address"
        },
        {
          "indexed": true,
          "internalType": "uint256",
          "name": "tokenId",
          "type": "uint256"
        }
      ],
      "name": "AuctionCreated",
      "type": "event"
    },
    {
      "anonymous": false,
      "inputs": [
        {
          "indexed": false,
          "internalType": "uint64",
          "name": "version",
          "type": "uint64"
        }
      ],
      "name": "Initialized",
      "type": "event"
    },
    {
      "anonymous": false,
      "inputs": [
        {
          "indexed": true,
          "internalType": "address",
          "name": "previousOwner",
          "type": "address"
        },
        {
          "indexed": true,
          "internalType": "address",
          "name": "newOwner",
          "type": "address"
        }
      ],
      "name": "OwnershipTransferred",
      "type": "event"
    },
    {
      "anonymous": false,
      "inputs": [
        {
          "indexed": true,
          "internalType": "address",
          "name": "implementation",
          "type": "address"
        }
      ],
      "name": "Upgraded",
      "type": "event"
    },
    {
      "inputs": [],
      "name": "UPGRADE_INTERFACE_VERSION",
      "outputs": [
        {
          "internalType": "string",
          "name": "",
          "type": "string"
        }
      ],
      "stateMutability": "view",
      "type": "function"
    },
    {
      "inputs": [
        {
          "internalType": "uint256",
          "name": "",
          "type": "uint256"
        }
      ],
      "name": "auctions",
      "outputs": [
        {
          "internalType": "contract NftAuction",
          "name": "",
          "type": "address"
        }
      ],
      "stateMutability": "view",
      "type": "function"
    },
    {
      "inputs": [
        {
          "internalType": "address",
          "name": "_nftAddress",
          "type": "address"
        },
        {
          "internalType": "uint256",
          "name": "_tokenId",
          "type": "uint256"
        },
        {
          "internalType": "uint256",
          "name": "_startingPrice",
          "type": "uint256"
        },
        {
          "internalType": "uint256",
          "name": "_duration",
          "type": "uint256"
        }
      ],
      "name": "createAuction",
      "outputs": [],
      "stateMutability": "nonpayable",
      "type": "function"
    },
    {
      "inputs": [
        {
          "internalType": "address",
          "name": "",
          "type": "address"
        },
        {
          "internalType": "uint256",
          "name": "",
          "type": "uint256"
        }
      ],
      "name": "getAuction",
      "outputs": [
        {
          "internalType": "address",
          "name": "",
          "type": "address"
        }
      ],
      "stateMutability": "view",
      "type": "function"
    },
    {
      "inputs": [],
      "name": "initialize",
      "outputs": [],
      "stateMutability": "nonpayable",
      "type": "function"
    },
    {
      "inputs": [],
      "name": "owner",
      "outputs": [
        {
          "internalType": "address",
          "name": "",
          "type": "address"
        }
      ],
      "stateMutability": "view",
      "type": "function"
    },
    {
      "inputs": [],
      "name": "proxiableUUID",
      "outputs": [
        {
          "internalType": "bytes32",
          "name": "",
          "type": "bytes32"
        }
      ],
      "stateMutability": "view",
      "type": "function"
    },
    {
      "inputs": [],
      "name": "renounceOwnership",
      "outputs": [],
      "stateMutability": "nonpayable",
      "type": "function"
    },
    {
      "inputs": [
        {
          "internalType": "address",
          "name": "newOwner",
          "type": "address"
        }
      ],
      "name": "transferOwnership",
      "outputs": [],
      "stateMutability": "nonpayable",
      "type": "function"
    },
    {
      "inputs": [
        {
          "internalType": "address",
          "name": "newImplementation",
          "type": "address"
        },
        {
          "internalType": "bytes",
          "name": "data",
          "type": "bytes"
        }
      ],
      "name": "upgradeToAndCall",
      "outputs": [],
      "stateMutability": "payable",
      "type": "function"
    }
  ],
  "transactionHash": "0x8d1e926cc78bae7560cef0a72680b21d20f89789ff782a5f0ed5ead6b4d4defc",
  "args": [],
  "numDeployments": 1,
  "solcInputHash": "d5bf1f8333f430ca3ccf1a0884c0891d",
  "bytecode": "0x60a06040523073ffffffffffffffffffffffffffffffffffffffff1660809073ffffffffffffffffffffffffffffffffffffffff16815250348015604257600080fd5b50608051613c4461006c60003960008181610a6c01528181610ac10152610c7c0152613c446000f3fe6080604052600436106100915760003560e01c8063762a66a211610059578063762a66a21461015a5780638129fc1c146101975780638da5cb5b146101ae578063ad3cb1cc146101d9578063f2fde38b1461020457610091565b80634f1ef2861461009657806352d1902d146100b2578063571a26a0146100dd57806361beb1d71461011a578063715018a614610143575b600080fd5b6100b060048036038101906100ab91906114cc565b61022d565b005b3480156100be57600080fd5b506100c761024c565b6040516100d49190611541565b60405180910390f35b3480156100e957600080fd5b5061010460048036038101906100ff9190611592565b61027f565b604051610111919061161e565b60405180910390f35b34801561012657600080fd5b50610141600480360381019061013c9190611639565b6102be565b005b34801561014f57600080fd5b50610158610787565b005b34801561016657600080fd5b50610181600480360381019061017c91906116a0565b61079b565b60405161018e91906116ef565b60405180910390f35b3480156101a357600080fd5b506101ac6107dd565b005b3480156101ba57600080fd5b506101c3610973565b6040516101d091906116ef565b60405180910390f35b3480156101e557600080fd5b506101ee6109ab565b6040516101fb9190611789565b60405180910390f35b34801561021057600080fd5b5061022b600480360381019061022691906117ab565b6109e4565b005b610235610a6a565b61023e82610b50565b6102488282610b5b565b5050565b6000610256610c7a565b7f360894a13ba1a3210667c828492db98dca3e2076cc3735a920a3ca505d382bbc60001b905090565b6001818154811061028f57600080fd5b906000526020600020016000915054906101000a900473ffffffffffffffffffffffffffffffffffffffff1681565b3373ffffffffffffffffffffffffffffffffffffffff168473ffffffffffffffffffffffffffffffffffffffff16636352211e856040518263ffffffff1660e01b815260040161030e91906117e7565b602060405180830381865afa15801561032b573d6000803e3d6000fd5b505050506040513d601f19601f8201168201806040525081019061034f9190611817565b73ffffffffffffffffffffffffffffffffffffffff16146103a5576040517f08c379a000000000000000000000000000000000000000000000000000000000815260040161039c90611890565b60405180910390fd5b3073ffffffffffffffffffffffffffffffffffffffff168473ffffffffffffffffffffffffffffffffffffffff1663081812fc856040518263ffffffff1660e01b81526004016103f591906117e7565b602060405180830381865afa158015610412573d6000803e3d6000fd5b505050506040513d601f19601f820116820180604052508101906104369190611817565b73ffffffffffffffffffffffffffffffffffffffff1614806104d057508373ffffffffffffffffffffffffffffffffffffffff1663e985e9c533306040518363ffffffff1660e01b815260040161048e9291906118b0565b602060405180830381865afa1580156104ab573d6000803e3d6000fd5b505050506040513d601f19601f820116820180604052508101906104cf9190611911565b5b61050f576040517f08c379a0000000000000000000000000000000000000000000000000000000008152600401610506906119b0565b60405180910390fd5b600060405161051d90611307565b604051809103906000f080158015610539573d6000803e3d6000fd5b5090508073ffffffffffffffffffffffffffffffffffffffff16636c28e34986868686336040518663ffffffff1660e01b815260040161057d9594939291906119d0565b600060405180830381600087803b15801561059757600080fd5b505af11580156105ab573d6000803e3d6000fd5b505050508473ffffffffffffffffffffffffffffffffffffffff166323b872dd3383876040518463ffffffff1660e01b81526004016105ec93929190611a23565b600060405180830381600087803b15801561060657600080fd5b505af115801561061a573d6000803e3d6000fd5b50505050600060018054905090506001829080600181540180825580915050600190039060005260206000200160009091909190916101000a81548173ffffffffffffffffffffffffffffffffffffffff021916908373ffffffffffffffffffffffffffffffffffffffff160217905550816000808873ffffffffffffffffffffffffffffffffffffffff1673ffffffffffffffffffffffffffffffffffffffff168152602001908152602001600020600087815260200190815260200160002060006101000a81548173ffffffffffffffffffffffffffffffffffffffff021916908373ffffffffffffffffffffffffffffffffffffffff160217905550848673ffffffffffffffffffffffffffffffffffffffff168373ffffffffffffffffffffffffffffffffffffffff167fc020eaff962593ba4d8f22dfe59abd3cefe8dbdc11d3cf03db31a97ef4041fda8460405161077791906117e7565b60405180910390a4505050505050565b61078f610d01565b6107996000610d88565b565b60006020528160005260406000206020528060005260406000206000915091509054906101000a900473ffffffffffffffffffffffffffffffffffffffff1681565b60006107e7610e5f565b905060008160000160089054906101000a900460ff1615905060008260000160009054906101000a900467ffffffffffffffff1690506000808267ffffffffffffffff161480156108355750825b9050600060018367ffffffffffffffff1614801561086a575060003073ffffffffffffffffffffffffffffffffffffffff163b145b905081158015610878575080155b156108af576040517ff92ee8a900000000000000000000000000000000000000000000000000000000815260040160405180910390fd5b60018560000160006101000a81548167ffffffffffffffff021916908367ffffffffffffffff16021790555083156108ff5760018560000160086101000a81548160ff0219169083151502179055505b61090833610e73565b610910610e87565b831561096c5760008560000160086101000a81548160ff0219169083151502179055507fc7f505b2f371ae2175ee4913f4499e1f2633a7b5936321eed1cdaeb6115181d260016040516109639190611aa9565b60405180910390a15b5050505050565b60008061097e610e91565b90508060000160009054906101000a900473ffffffffffffffffffffffffffffffffffffffff1691505090565b6040518060400160405280600581526020017f352e302e3000000000000000000000000000000000000000000000000000000081525081565b6109ec610d01565b600073ffffffffffffffffffffffffffffffffffffffff168173ffffffffffffffffffffffffffffffffffffffff1603610a5e5760006040517f1e4fbdf7000000000000000000000000000000000000000000000000000000008152600401610a5591906116ef565b60405180910390fd5b610a6781610d88565b50565b7f000000000000000000000000000000000000000000000000000000000000000073ffffffffffffffffffffffffffffffffffffffff163073ffffffffffffffffffffffffffffffffffffffff161480610b1757507f000000000000000000000000000000000000000000000000000000000000000073ffffffffffffffffffffffffffffffffffffffff16610afe610eb9565b73ffffffffffffffffffffffffffffffffffffffff1614155b15610b4e576040517fe07c8dba00000000000000000000000000000000000000000000000000000000815260040160405180910390fd5b565b610b58610d01565b50565b8173ffffffffffffffffffffffffffffffffffffffff166352d1902d6040518163ffffffff1660e01b8152600401602060405180830381865afa925050508015610bc357506040513d601f19601f82011682018060405250810190610bc09190611af0565b60015b610c0457816040517f4c9c8ce3000000000000000000000000000000000000000000000000000000008152600401610bfb91906116ef565b60405180910390fd5b7f360894a13ba1a3210667c828492db98dca3e2076cc3735a920a3ca505d382bbc60001b8114610c6b57806040517faa1d49a4000000000000000000000000000000000000000000000000000000008152600401610c629190611541565b60405180910390fd5b610c758383610f10565b505050565b7f000000000000000000000000000000000000000000000000000000000000000073ffffffffffffffffffffffffffffffffffffffff163073ffffffffffffffffffffffffffffffffffffffff1614610cff576040517fe07c8dba00000000000000000000000000000000000000000000000000000000815260040160405180910390fd5b565b610d09610f83565b73ffffffffffffffffffffffffffffffffffffffff16610d27610973565b73ffffffffffffffffffffffffffffffffffffffff1614610d8657610d4a610f83565b6040517f118cdaa7000000000000000000000000000000000000000000000000000000008152600401610d7d91906116ef565b60405180910390fd5b565b6000610d92610e91565b905060008160000160009054906101000a900473ffffffffffffffffffffffffffffffffffffffff169050828260000160006101000a81548173ffffffffffffffffffffffffffffffffffffffff021916908373ffffffffffffffffffffffffffffffffffffffff1602179055508273ffffffffffffffffffffffffffffffffffffffff168173ffffffffffffffffffffffffffffffffffffffff167f8be0079c531659141344cd1fd0a4f28419497f9722a3daafe3b4186f6b6457e060405160405180910390a3505050565b600080610e6a610f8b565b90508091505090565b610e7b610fb6565b610e8481610ff6565b50565b610e8f610fb6565b565b60007f9016d09d72d40fdae2fd8ceac6b6234c7706214fd39c1cd1e609a0528c199300905090565b6000610ee77f360894a13ba1a3210667c828492db98dca3e2076cc3735a920a3ca505d382bbc60001b61107c565b60000160009054906101000a900473ffffffffffffffffffffffffffffffffffffffff16905090565b610f1982611086565b8173ffffffffffffffffffffffffffffffffffffffff167fbc7cd75a20ee27fd9adebab32041f755214dbc6bffa90cc0225b39da2e5c2d3b60405160405180910390a2600081511115610f7657610f708282611153565b50610f7f565b610f7e6111d7565b5b5050565b600033905090565b60007ff0c57e16840df040f15088dc2f81fe391c3923bec73e23a9662efc9c229c6a0060001b905090565b610fbe611214565b610ff4576040517fd7e6bcf800000000000000000000000000000000000000000000000000000000815260040160405180910390fd5b565b610ffe610fb6565b600073ffffffffffffffffffffffffffffffffffffffff168173ffffffffffffffffffffffffffffffffffffffff16036110705760006040517f1e4fbdf700000000000000000000000000000000000000000000000000000000815260040161106791906116ef565b60405180910390fd5b61107981610d88565b50565b6000819050919050565b60008173ffffffffffffffffffffffffffffffffffffffff163b036110e257806040517f4c9c8ce30000000000000000000000000000000000000000000000000000000081526004016110d991906116ef565b60405180910390fd5b8061110f7f360894a13ba1a3210667c828492db98dca3e2076cc3735a920a3ca505d382bbc60001b61107c565b60000160006101000a81548173ffffffffffffffffffffffffffffffffffffffff021916908373ffffffffffffffffffffffffffffffffffffffff16021790555050565b60606000808473ffffffffffffffffffffffffffffffffffffffff168460405161117d9190611b64565b600060405180830381855af49150503d80600081146111b8576040519150601f19603f3d011682016040523d82523d6000602084013e6111bd565b606091505b50915091506111cd858383611234565b9250505092915050565b6000341115611212576040517fb398979f00000000000000000000000000000000000000000000000000000000815260040160405180910390fd5b565b600061121e610e5f565b60000160089054906101000a900460ff16905090565b60608261124957611244826112c3565b6112bb565b60008251148015611271575060008473ffffffffffffffffffffffffffffffffffffffff163b145b156112b357836040517f9996b3150000000000000000000000000000000000000000000000000000000081526004016112aa91906116ef565b60405180910390fd5b8190506112bc565b5b9392505050565b6000815111156112d557805160208201fd5b6040517fd6bda27500000000000000000000000000000000000000000000000000000000815260040160405180910390fd5b61209380611b7c83390190565b6000604051905090565b600080fd5b600080fd5b600073ffffffffffffffffffffffffffffffffffffffff82169050919050565b600061135382611328565b9050919050565b61136381611348565b811461136e57600080fd5b50565b6000813590506113808161135a565b92915050565b600080fd5b600080fd5b6000601f19601f8301169050919050565b7f4e487b7100000000000000000000000000000000000000000000000000000000600052604160045260246000fd5b6113d982611390565b810181811067ffffffffffffffff821117156113f8576113f76113a1565b5b80604052505050565b600061140b611314565b905061141782826113d0565b919050565b600067ffffffffffffffff821115611437576114366113a1565b5b61144082611390565b9050602081019050919050565b82818337600083830152505050565b600061146f61146a8461141c565b611401565b90508281526020810184848401111561148b5761148a61138b565b5b61149684828561144d565b509392505050565b600082601f8301126114b3576114b2611386565b5b81356114c384826020860161145c565b91505092915050565b600080604083850312156114e3576114e261131e565b5b60006114f185828601611371565b925050602083013567ffffffffffffffff81111561151257611511611323565b5b61151e8582860161149e565b9150509250929050565b6000819050919050565b61153b81611528565b82525050565b60006020820190506115566000830184611532565b92915050565b6000819050919050565b61156f8161155c565b811461157a57600080fd5b50565b60008135905061158c81611566565b92915050565b6000602082840312156115a8576115a761131e565b5b60006115b68482850161157d565b91505092915050565b6000819050919050565b60006115e46115df6115da84611328565b6115bf565b611328565b9050919050565b60006115f6826115c9565b9050919050565b6000611608826115eb565b9050919050565b611618816115fd565b82525050565b6000602082019050611633600083018461160f565b92915050565b600080600080608085870312156116535761165261131e565b5b600061166187828801611371565b94505060206116728782880161157d565b93505060406116838782880161157d565b92505060606116948782880161157d565b91505092959194509250565b600080604083850312156116b7576116b661131e565b5b60006116c585828601611371565b92505060206116d68582860161157d565b9150509250929050565b6116e981611348565b82525050565b600060208201905061170460008301846116e0565b92915050565b600081519050919050565b600082825260208201905092915050565b60005b83811015611744578082015181840152602081019050611729565b60008484015250505050565b600061175b8261170a565b6117658185611715565b9350611775818560208601611726565b61177e81611390565b840191505092915050565b600060208201905081810360008301526117a38184611750565b905092915050565b6000602082840312156117c1576117c061131e565b5b60006117cf84828501611371565b91505092915050565b6117e18161155c565b82525050565b60006020820190506117fc60008301846117d8565b92915050565b6000815190506118118161135a565b92915050565b60006020828403121561182d5761182c61131e565b5b600061183b84828501611802565b91505092915050565b7f63616c6c6572206e6f7420746f6b656e206f776e657200000000000000000000600082015250565b600061187a601683611715565b915061188582611844565b602082019050919050565b600060208201905081810360008301526118a98161186d565b9050919050565b60006040820190506118c560008301856116e0565b6118d260208301846116e0565b9392505050565b60008115159050919050565b6118ee816118d9565b81146118f957600080fd5b50565b60008151905061190b816118e5565b92915050565b6000602082840312156119275761192661131e565b5b6000611935848285016118fc565b91505092915050565b7f666163746f7279206e6f7420617070726f76656420746f207472616e7366657260008201527f20746f6b656e0000000000000000000000000000000000000000000000000000602082015250565b600061199a602683611715565b91506119a58261193e565b604082019050919050565b600060208201905081810360008301526119c98161198d565b9050919050565b600060a0820190506119e560008301886116e0565b6119f260208301876117d8565b6119ff60408301866117d8565b611a0c60608301856117d8565b611a1960808301846116e0565b9695505050505050565b6000606082019050611a3860008301866116e0565b611a4560208301856116e0565b611a5260408301846117d8565b949350505050565b6000819050919050565b600067ffffffffffffffff82169050919050565b6000611a93611a8e611a8984611a5a565b6115bf565b611a64565b9050919050565b611aa381611a78565b82525050565b6000602082019050611abe6000830184611a9a565b92915050565b611acd81611528565b8114611ad857600080fd5b50565b600081519050611aea81611ac4565b92915050565b600060208284031215611b0657611b0561131e565b5b6000611b1484828501611adb565b91505092915050565b600081519050919050565b600081905092915050565b6000611b3e82611b1d565b611b488185611b28565b9350611b58818560208601611726565b80840191505092915050565b6000611b708284611b33565b91508190509291505056fe60a06040523073ffffffffffffffffffffffffffffffffffffffff1660809073ffffffffffffffffffffffffffffffffffffffff16815250348015604257600080fd5b5060805161202761006c60003960008181610e4901528181610e9e015261105901526120276000f3fe6080604052600436106101095760003560e01c80638da5cb5b11610095578063d56d229d11610064578063d56d229d14610304578063d57bde791461032f578063d6fbf2021461035a578063ecfc7ecc14610385578063f2fde38b1461038f57610109565b80638da5cb5b1461025857806391f9015714610283578063ad3cb1cc146102ae578063c45a0155146102d957610109565b80634f1ef286116100dc5780634f1ef286146101ba57806352d1902d146101d65780636c28e34914610201578063715018a61461022a5780637b4336871461024157610109565b806308551a531461010e5780630fb5a6b41461013957806312fa6feb1461016457806317d70f7c1461018f575b600080fd5b34801561011a57600080fd5b506101236103b8565b60405161013091906117f0565b60405180910390f35b34801561014557600080fd5b5061014e6103de565b60405161015b9190611824565b60405180910390f35b34801561017057600080fd5b506101796103e4565b604051610186919061185a565b60405180910390f35b34801561019b57600080fd5b506101a46103f7565b6040516101b19190611824565b60405180910390f35b6101d460048036038101906101cf91906119fb565b6103fd565b005b3480156101e257600080fd5b506101eb61041c565b6040516101f89190611a70565b60405180910390f35b34801561020d57600080fd5b5061022860048036038101906102239190611ab7565b61044f565b005b34801561023657600080fd5b5061023f6106d4565b005b34801561024d57600080fd5b506102566106e8565b005b34801561026457600080fd5b5061026d610a9d565b60405161027a91906117f0565b60405180910390f35b34801561028f57600080fd5b50610298610ad5565b6040516102a591906117f0565b60405180910390f35b3480156102ba57600080fd5b506102c3610afb565b6040516102d09190611bb1565b60405180910390f35b3480156102e557600080fd5b506102ee610b34565b6040516102fb91906117f0565b60405180910390f35b34801561031057600080fd5b50610319610b58565b60405161032691906117f0565b60405180910390f35b34801561033b57600080fd5b50610344610b7e565b6040516103519190611824565b60405180910390f35b34801561036657600080fd5b5061036f610b84565b60405161037c9190611824565b60405180910390f35b61038d610b8a565b005b34801561039b57600080fd5b506103b660048036038101906103b19190611bd3565b610dc1565b005b600360009054906101000a900473ffffffffffffffffffffffffffffffffffffffff1681565b60055481565b600860009054906101000a900460ff1681565b60025481565b610405610e47565b61040e82610f2d565b6104188282610f38565b5050565b6000610426611057565b7f360894a13ba1a3210667c828492db98dca3e2076cc3735a920a3ca505d382bbc60001b905090565b60006104596110de565b905060008160000160089054906101000a900460ff1615905060008260000160009054906101000a900467ffffffffffffffff1690506000808267ffffffffffffffff161480156104a75750825b9050600060018367ffffffffffffffff161480156104dc575060003073ffffffffffffffffffffffffffffffffffffffff163b145b9050811580156104ea575080155b15610521576040517ff92ee8a900000000000000000000000000000000000000000000000000000000815260040160405180910390fd5b60018560000160006101000a81548167ffffffffffffffff021916908367ffffffffffffffff16021790555083156105715760018560000160086101000a81548160ff0219169083151502179055505b89600160006101000a81548173ffffffffffffffffffffffffffffffffffffffff021916908373ffffffffffffffffffffffffffffffffffffffff160217905550886002819055508760048190555086426105cc9190611c2f565b60058190555085600360006101000a81548173ffffffffffffffffffffffffffffffffffffffff021916908373ffffffffffffffffffffffffffffffffffffffff160217905550336000806101000a81548173ffffffffffffffffffffffffffffffffffffffff021916908373ffffffffffffffffffffffffffffffffffffffff16021790555061065c336110f2565b610664611106565b61066c611118565b83156106c85760008560000160086101000a81548160ff0219169083151502179055507fc7f505b2f371ae2175ee4913f4499e1f2633a7b5936321eed1cdaeb6115181d260016040516106bf9190611cbc565b60405180910390a15b50505050505050505050565b6106dc611122565b6106e660006111a9565b565b6106f0611280565b600554421015610735576040517f08c379a000000000000000000000000000000000000000000000000000000000815260040161072c90611d23565b60405180910390fd5b600860009054906101000a900460ff1615610785576040517f08c379a000000000000000000000000000000000000000000000000000000000815260040161077c90611d8f565b60405180910390fd5b6001600860006101000a81548160ff021916908315150217905550600073ffffffffffffffffffffffffffffffffffffffff16600660009054906101000a900473ffffffffffffffffffffffffffffffffffffffff1673ffffffffffffffffffffffffffffffffffffffff161461098d57600160009054906101000a900473ffffffffffffffffffffffffffffffffffffffff1673ffffffffffffffffffffffffffffffffffffffff166323b872dd30600660009054906101000a900473ffffffffffffffffffffffffffffffffffffffff166002546040518463ffffffff1660e01b815260040161087993929190611daf565b600060405180830381600087803b15801561089357600080fd5b505af11580156108a7573d6000803e3d6000fd5b50505050600360009054906101000a900473ffffffffffffffffffffffffffffffffffffffff1673ffffffffffffffffffffffffffffffffffffffff166108fc6007549081150290604051600060405180830381858888f19350505050158015610915573d6000803e3d6000fd5b50600660009054906101000a900473ffffffffffffffffffffffffffffffffffffffff1673ffffffffffffffffffffffffffffffffffffffff167fdaec4582d5d9595688c8c98545fdd1c696d41c6aeaeb636737e84ed2f5c00eda6007546040516109809190611824565b60405180910390a2610a93565b600160009054906101000a900473ffffffffffffffffffffffffffffffffffffffff1673ffffffffffffffffffffffffffffffffffffffff166323b872dd30600360009054906101000a900473ffffffffffffffffffffffffffffffffffffffff166002546040518463ffffffff1660e01b8152600401610a1093929190611daf565b600060405180830381600087803b158015610a2a57600080fd5b505af1158015610a3e573d6000803e3d6000fd5b50505050600073ffffffffffffffffffffffffffffffffffffffff167fdaec4582d5d9595688c8c98545fdd1c696d41c6aeaeb636737e84ed2f5c00eda6000604051610a8a9190611e21565b60405180910390a25b610a9b6112d7565b565b600080610aa86112f0565b90508060000160009054906101000a900473ffffffffffffffffffffffffffffffffffffffff1691505090565b600660009054906101000a900473ffffffffffffffffffffffffffffffffffffffff1681565b6040518060400160405280600581526020017f352e302e3000000000000000000000000000000000000000000000000000000081525081565b60008054906101000a900473ffffffffffffffffffffffffffffffffffffffff1681565b600160009054906101000a900473ffffffffffffffffffffffffffffffffffffffff1681565b60075481565b60045481565b610b92611280565b6005544210610bd6576040517f08c379a0000000000000000000000000000000000000000000000000000000008152600401610bcd90611d8f565b60405180910390fd5b600454341015610c1b576040517f08c379a0000000000000000000000000000000000000000000000000000000008152600401610c1290611eae565b60405180910390fd5b6007543411610c5f576040517f08c379a0000000000000000000000000000000000000000000000000000000008152600401610c5690611f1a565b60405180910390fd5b600073ffffffffffffffffffffffffffffffffffffffff16600660009054906101000a900473ffffffffffffffffffffffffffffffffffffffff1673ffffffffffffffffffffffffffffffffffffffff1614610d2157600660009054906101000a900473ffffffffffffffffffffffffffffffffffffffff1673ffffffffffffffffffffffffffffffffffffffff166108fc6007549081150290604051600060405180830381858888f19350505050158015610d1f573d6000803e3d6000fd5b505b33600660006101000a81548173ffffffffffffffffffffffffffffffffffffffff021916908373ffffffffffffffffffffffffffffffffffffffff160217905550346007819055503373ffffffffffffffffffffffffffffffffffffffff167f3fabff0a9c3ecd6814702e247fa9733e5d0aa69e3a38590f92cb18f623a2254d34604051610daf9190611824565b60405180910390a2610dbf6112d7565b565b610dc9611122565b600073ffffffffffffffffffffffffffffffffffffffff168173ffffffffffffffffffffffffffffffffffffffff1603610e3b5760006040517f1e4fbdf7000000000000000000000000000000000000000000000000000000008152600401610e3291906117f0565b60405180910390fd5b610e44816111a9565b50565b7f000000000000000000000000000000000000000000000000000000000000000073ffffffffffffffffffffffffffffffffffffffff163073ffffffffffffffffffffffffffffffffffffffff161480610ef457507f000000000000000000000000000000000000000000000000000000000000000073ffffffffffffffffffffffffffffffffffffffff16610edb611318565b73ffffffffffffffffffffffffffffffffffffffff1614155b15610f2b576040517fe07c8dba00000000000000000000000000000000000000000000000000000000815260040160405180910390fd5b565b610f35611122565b50565b8173ffffffffffffffffffffffffffffffffffffffff166352d1902d6040518163ffffffff1660e01b8152600401602060405180830381865afa925050508015610fa057506040513d601f19601f82011682018060405250810190610f9d9190611f66565b60015b610fe157816040517f4c9c8ce3000000000000000000000000000000000000000000000000000000008152600401610fd891906117f0565b60405180910390fd5b7f360894a13ba1a3210667c828492db98dca3e2076cc3735a920a3ca505d382bbc60001b811461104857806040517faa1d49a400000000000000000000000000000000000000000000000000000000815260040161103f9190611a70565b60405180910390fd5b611052838361136f565b505050565b7f000000000000000000000000000000000000000000000000000000000000000073ffffffffffffffffffffffffffffffffffffffff163073ffffffffffffffffffffffffffffffffffffffff16146110dc576040517fe07c8dba00000000000000000000000000000000000000000000000000000000815260040160405180910390fd5b565b6000806110e96113e2565b90508091505090565b6110fa61140d565b6111038161144d565b50565b61110e61140d565b6111166114d3565b565b61112061140d565b565b61112a6114f4565b73ffffffffffffffffffffffffffffffffffffffff16611148610a9d565b73ffffffffffffffffffffffffffffffffffffffff16146111a75761116b6114f4565b6040517f118cdaa700000000000000000000000000000000000000000000000000000000815260040161119e91906117f0565b60405180910390fd5b565b60006111b36112f0565b905060008160000160009054906101000a900473ffffffffffffffffffffffffffffffffffffffff169050828260000160006101000a81548173ffffffffffffffffffffffffffffffffffffffff021916908373ffffffffffffffffffffffffffffffffffffffff1602179055508273ffffffffffffffffffffffffffffffffffffffff168173ffffffffffffffffffffffffffffffffffffffff167f8be0079c531659141344cd1fd0a4f28419497f9722a3daafe3b4186f6b6457e060405160405180910390a3505050565b600061128a6114fc565b905060028160000154036112ca576040517f3ee5aeb500000000000000000000000000000000000000000000000000000000815260040160405180910390fd5b6002816000018190555050565b60006112e16114fc565b90506001816000018190555050565b60007f9016d09d72d40fdae2fd8ceac6b6234c7706214fd39c1cd1e609a0528c199300905090565b60006113467f360894a13ba1a3210667c828492db98dca3e2076cc3735a920a3ca505d382bbc60001b611524565b60000160009054906101000a900473ffffffffffffffffffffffffffffffffffffffff16905090565b6113788261152e565b8173ffffffffffffffffffffffffffffffffffffffff167fbc7cd75a20ee27fd9adebab32041f755214dbc6bffa90cc0225b39da2e5c2d3b60405160405180910390a26000815111156113d5576113cf82826115fb565b506113de565b6113dd61167f565b5b5050565b60007ff0c57e16840df040f15088dc2f81fe391c3923bec73e23a9662efc9c229c6a0060001b905090565b6114156116bc565b61144b576040517fd7e6bcf800000000000000000000000000000000000000000000000000000000815260040160405180910390fd5b565b61145561140d565b600073ffffffffffffffffffffffffffffffffffffffff168173ffffffffffffffffffffffffffffffffffffffff16036114c75760006040517f1e4fbdf70000000000000000000000000000000000000000000000000000000081526004016114be91906117f0565b60405180910390fd5b6114d0816111a9565b50565b6114db61140d565b60006114e56114fc565b90506001816000018190555050565b600033905090565b60007f9b779b17422d0df92223018b32b4d1fa46e071723d6817e2486d003becc55f00905090565b6000819050919050565b60008173ffffffffffffffffffffffffffffffffffffffff163b0361158a57806040517f4c9c8ce300000000000000000000000000000000000000000000000000000000815260040161158191906117f0565b60405180910390fd5b806115b77f360894a13ba1a3210667c828492db98dca3e2076cc3735a920a3ca505d382bbc60001b611524565b60000160006101000a81548173ffffffffffffffffffffffffffffffffffffffff021916908373ffffffffffffffffffffffffffffffffffffffff16021790555050565b60606000808473ffffffffffffffffffffffffffffffffffffffff16846040516116259190611fda565b600060405180830381855af49150503d8060008114611660576040519150601f19603f3d011682016040523d82523d6000602084013e611665565b606091505b50915091506116758583836116dc565b9250505092915050565b60003411156116ba576040517fb398979f00000000000000000000000000000000000000000000000000000000815260040160405180910390fd5b565b60006116c66110de565b60000160089054906101000a900460ff16905090565b6060826116f1576116ec8261176b565b611763565b60008251148015611719575060008473ffffffffffffffffffffffffffffffffffffffff163b145b1561175b57836040517f9996b31500000000000000000000000000000000000000000000000000000000815260040161175291906117f0565b60405180910390fd5b819050611764565b5b9392505050565b60008151111561177d57805160208201fd5b6040517fd6bda27500000000000000000000000000000000000000000000000000000000815260040160405180910390fd5b600073ffffffffffffffffffffffffffffffffffffffff82169050919050565b60006117da826117af565b9050919050565b6117ea816117cf565b82525050565b600060208201905061180560008301846117e1565b92915050565b6000819050919050565b61181e8161180b565b82525050565b60006020820190506118396000830184611815565b92915050565b60008115159050919050565b6118548161183f565b82525050565b600060208201905061186f600083018461184b565b92915050565b6000604051905090565b600080fd5b600080fd5b611892816117cf565b811461189d57600080fd5b50565b6000813590506118af81611889565b92915050565b600080fd5b600080fd5b6000601f19601f8301169050919050565b7f4e487b7100000000000000000000000000000000000000000000000000000000600052604160045260246000fd5b611908826118bf565b810181811067ffffffffffffffff82111715611927576119266118d0565b5b80604052505050565b600061193a611875565b905061194682826118ff565b919050565b600067ffffffffffffffff821115611966576119656118d0565b5b61196f826118bf565b9050602081019050919050565b82818337600083830152505050565b600061199e6119998461194b565b611930565b9050828152602081018484840111156119ba576119b96118ba565b5b6119c584828561197c565b509392505050565b600082601f8301126119e2576119e16118b5565b5b81356119f284826020860161198b565b91505092915050565b60008060408385031215611a1257611a1161187f565b5b6000611a20858286016118a0565b925050602083013567ffffffffffffffff811115611a4157611a40611884565b5b611a4d858286016119cd565b9150509250929050565b6000819050919050565b611a6a81611a57565b82525050565b6000602082019050611a856000830184611a61565b92915050565b611a948161180b565b8114611a9f57600080fd5b50565b600081359050611ab181611a8b565b92915050565b600080600080600060a08688031215611ad357611ad261187f565b5b6000611ae1888289016118a0565b9550506020611af288828901611aa2565b9450506040611b0388828901611aa2565b9350506060611b1488828901611aa2565b9250506080611b25888289016118a0565b9150509295509295909350565b600081519050919050565b600082825260208201905092915050565b60005b83811015611b6c578082015181840152602081019050611b51565b60008484015250505050565b6000611b8382611b32565b611b8d8185611b3d565b9350611b9d818560208601611b4e565b611ba6816118bf565b840191505092915050565b60006020820190508181036000830152611bcb8184611b78565b905092915050565b600060208284031215611be957611be861187f565b5b6000611bf7848285016118a0565b91505092915050565b7f4e487b7100000000000000000000000000000000000000000000000000000000600052601160045260246000fd5b6000611c3a8261180b565b9150611c458361180b565b9250828201905080821115611c5d57611c5c611c00565b5b92915050565b6000819050919050565b600067ffffffffffffffff82169050919050565b6000819050919050565b6000611ca6611ca1611c9c84611c63565b611c81565b611c6d565b9050919050565b611cb681611c8b565b82525050565b6000602082019050611cd16000830184611cad565b92915050565b7f41756374696f6e206e6f742079657420656e6465640000000000000000000000600082015250565b6000611d0d601583611b3d565b9150611d1882611cd7565b602082019050919050565b60006020820190508181036000830152611d3c81611d00565b9050919050565b7f41756374696f6e20616c726561647920656e6465640000000000000000000000600082015250565b6000611d79601583611b3d565b9150611d8482611d43565b602082019050919050565b60006020820190508181036000830152611da881611d6c565b9050919050565b6000606082019050611dc460008301866117e1565b611dd160208301856117e1565b611dde6040830184611815565b949350505050565b6000819050919050565b6000611e0b611e06611e0184611de6565b611c81565b61180b565b9050919050565b611e1b81611df0565b82525050565b6000602082019050611e366000830184611e12565b92915050565b7f426964206d757374206265206174206c6561737420746865207374617274696e60008201527f6720707269636500000000000000000000000000000000000000000000000000602082015250565b6000611e98602783611b3d565b9150611ea382611e3c565b604082019050919050565b60006020820190508181036000830152611ec781611e8b565b9050919050565b7f546865726520616c726561647920697320612068696768657220626964000000600082015250565b6000611f04601d83611b3d565b9150611f0f82611ece565b602082019050919050565b60006020820190508181036000830152611f3381611ef7565b9050919050565b611f4381611a57565b8114611f4e57600080fd5b50565b600081519050611f6081611f3a565b92915050565b600060208284031215611f7c57611f7b61187f565b5b6000611f8a84828501611f51565b91505092915050565b600081519050919050565b600081905092915050565b6000611fb482611f93565b611fbe8185611f9e565b9350611fce818560208601611b4e565b80840191505092915050565b6000611fe68284611fa9565b91508190509291505056fea2646970667358221220ee69efbbb2a833b1beb686c655e68ca4656d800c7c4632928cc06c12d6f9c88964736f6c634300081c0033a2646970667358221220cdb65effec406af49210c3692006fb92ffe6a6ad14b6010e4b7e7ea28761305264736f6c634300081c0033",
  "devdoc": {
    "errors": {
      "AddressEmptyCode(address)": [
        {
          "details": "There's no code at `target` (it is not a contract)."
        }
      ],
      "ERC1967InvalidImplementation(address)": [
        {
          "details": "The `implementation` of the proxy is invalid."
        }
      ],
      "ERC1967NonPayable()": [
        {
          "details": "An upgrade function sees `msg.value > 0` that may be lost."
        }
      ],
      "FailedCall()": [
        {
          "details": "A call to an address target failed. The target may have reverted."
        }
      ],
      "InvalidInitialization()": [
        {
          "details": "The contract is already initialized."
        }
      ],
      "NotInitializing()": [
        {
          "details": "The contract is not initializing."
        }
      ],
      "OwnableInvalidOwner(address)": [
        {
          "details": "The owner is not a valid owner account. (eg. `address(0)`)"
        }
      ],
      "OwnableUnauthorizedAccount(address)": [
        {
          "details": "The caller account is not authorized to perform an operation."
        }
      ],
      "UUPSUnauthorizedCallContext()": [
        {
          "details": "The call is from an unauthorized context."
        }
      ],
      "UUPSUnsupportedProxiableUUID(bytes32)": [
        {
          "details": "The storage `slot` is unsupported as a UUID."
        }
      ]
    },
    "events": {
      "Initialized(uint64)": {
        "details": "Triggered when the contract has been initialized or reinitialized."
      },
      "Upgraded(address)": {
        "details": "Emitted when the implementation is upgraded."
      }
    },
    "kind": "dev",
    "methods": {
      "owner()": {
        "details": "Returns the address of the current owner."
      },
      "proxiableUUID()": {
        "details": "Implementation of the ERC-1822 {proxiableUUID} function. This returns the storage slot used by the implementation. It is used to validate the implementation's compatibility when performing an upgrade. IMPORTANT: A proxy pointing at a proxiable contract should not be considered proxiable itself, because this risks bricking a proxy that upgrades to it, by delegating to itself until out of gas. Thus it is critical that this function revert if invoked through a proxy. This is guaranteed by the `notDelegated` modifier."
      },
      "renounceOwnership()": {
        "details": "Leaves the contract without owner. It will not be possible to call `onlyOwner` functions. Can only be called by the current owner. NOTE: Renouncing ownership will leave the contract without an owner, thereby disabling any functionality that is only available to the owner."
      },
      "transferOwnership(address)": {
        "details": "Transfers ownership of the contract to a new account (`newOwner`). Can only be called by the current owner."
      },
      "upgradeToAndCall(address,bytes)": {
        "custom:oz-upgrades-unsafe-allow-reachable": "delegatecall",
        "details": "Upgrade the implementation of the proxy to `newImplementation`, and subsequently execute the function call encoded in `data`. Calls {_authorizeUpgrade}. Emits an {Upgraded} event."
      }
    },
    "version": 1
  },
  "userdoc": {
    "kind": "user",
    "methods": {},
    "version": 1
  },
  "storageLayout": {
    "storage": [
      {
        "astId": 8484,
        "contract": "contracts/NFTAuctionFactory.sol:NFTAuctionFactory",
        "label": "getAuction",
        "offset": 0,
        "slot": "0",
        "type": "t_mapping(t_address,t_mapping(t_uint256,t_address))"
      },
      {
        "astId": 8488,
        "contract": "contracts/NFTAuctionFactory.sol:NFTAuctionFactory",
        "label": "auctions",
        "offset": 0,
        "slot": "1",
        "type": "t_array(t_contract(NftAuction)8454)dyn_storage"
      }
    ],
    "types": {
      "t_address": {
        "encoding": "inplace",
        "label": "address",
        "numberOfBytes": "20"
      },
      "t_array(t_contract(NftAuction)8454)dyn_storage": {
        "base": "t_contract(NftAuction)8454",
        "encoding": "dynamic_array",
        "label": "contract NftAuction[]",
        "numberOfBytes": "32"
      },
      "t_contract(NftAuction)8454": {
        "encoding": "inplace",
        "label": "contract NftAuction",
        "numberOfBytes": "20"
      },
      "t_mapping(t_address,t_mapping(t_uint256,t_address))": {
        "encoding": "mapping",
        "key": "t_address",
        "label": "mapping(address => mapping(uint256 => address))",
        "numberOfBytes": "32",
        "value": "t_mapping(t_uint256,t_address)"
      },
      "t_mapping(t_uint256,t_address)": {
        "encoding": "mapping",
        "key": "t_uint256",
        "label": "mapping(uint256 => address)",
        "numberOfBytes": "32",
        "value": "t_address"
      },
      "t_uint256": {
        "encoding": "inplace",
        "label": "uint256",
        "numberOfBytes": "32"
      }
    }
  }
}