{
  "address": "0x0212d869CF4Aa48CFF19BB7102401E9D96353A7f",
  "abi": [
    {
      "inputs": [
        {
          "internalType": "address",
          "name": "target",
          "type": "address"
        }
      ],
      "name": "AddressEmptyCode",
      "type": "error"
    },
    {
      "inputs": [
        {
          "internalType": "address",
          "name": "implementation",
          "type": "address"
        }
      ],
      "name": "ERC1967InvalidImplementation",
      "type": "error"
    },
    {
      "inputs": [],
      "name": "ERC1967NonPayable",
      "type": "error"
    },
    {
      "inputs": [],
      "name": "FailedCall",
      "type": "error"
    },
    {
      "inputs": [],
      "name": "InvalidInitialization",
      "type": "error"
    },
    {
      "inputs": [],
      "name": "NotInitializing",
      "type": "error"
    },
    {
      "inputs": [
        {
          "internalType": "address",
          "name": "owner",
          "type": "address"
        }
      ],
      "name": "OwnableInvalidOwner",
      "type": "error"
    },
    {
      "inputs": [
        {
          "internalType": "address",
          "name": "account",
          "type": "address"
        }
      ],
      "name": "OwnableUnauthorizedAccount",
      "type": "error"
    },
    {
      "inputs": [],
      "name": "UUPSUnauthorizedCallContext",
      "type": "error"
    },
    {
      "inputs": [
        {
          "internalType": "bytes32",
          "name": "slot",
          "type": "bytes32"
        }
      ],
      "name": "UUPSUnsupportedProxiableUUID",
      "type": "error"
    },
    {
      "anonymous": false,
      "inputs": [
        {
          "indexed": true,
          "internalType": "address",
          "name": "auctionAddress",
          "type": "address"
        },
        {
          "indexed": false,
          "internalType": "uint256",
          "name": "auctionIndex",
          "type": "uint256"
        },
        {
          "indexed": true,
          "internalType": "address",
          "name": "nftAddress",
          "type": "address"
        },
        {
          "indexed": true,
          "internalType": "uint256",
          "name": "tokenId",
          "type": "uint256"
        }
      ],
      "name": "AuctionCreated",
      "type": "event"
    },
    {
      "anonymous": false,
      "inputs": [
        {
          "indexed": false,
          "internalType": "uint64",
          "name": "version",
          "type": "uint64"
        }
      ],
      "name": "Initialized",
      "type": "event"
    },
    {
      "anonymous": false,
      "inputs": [
        {
          "indexed": true,
          "internalType": "address",
          "name": "previousOwner",
          "type": "address"
        },
        {
          "indexed": true,
          "internalType": "address",
          "name": "newOwner",
          "type": "address"
        }
      ],
      "name": "OwnershipTransferred",
      "type": "event"
    },
    {
      "anonymous": false,
      "inputs": [
        {
          "indexed": true,
          "internalType": "address",
          "name": "implementation",
          "type": "address"
        }
      ],
      "name": "Upgraded",
      "type": "event"
    },
    {
      "inputs": [],
      "name": "UPGRADE_INTERFACE_VERSION",
      "outputs": [
        {
          "internalType": "string",
          "name": "",
          "type": "string"
        }
      ],
      "stateMutability": "view",
      "type": "function"
    },
    {
      "inputs": [
        {
          "internalType": "uint256",
          "name": "",
          "type": "uint256"
        }
      ],
      "name": "auctions",
      "outputs": [
        {
          "internalType": "contract NftAuction",
          "name": "",
          "type": "address"
        }
      ],
      "stateMutability": "view",
      "type": "function"
    },
    {
      "inputs": [
        {
          "internalType": "address",
          "name": "_nftAddress",
          "type": "address"
        },
        {
          "internalType": "uint256",
          "name": "_tokenId",
          "type": "uint256"
        },
        {
          "internalType": "address",
          "name": "_paymentToken",
          "type": "address"
        },
        {
          "internalType": "uint256",
          "name": "_startingPrice",
          "type": "uint256"
        },
        {
          "internalType": "uint256",
          "name": "_duration",
          "type": "uint256"
        }
      ],
      "name": "createAuction",
      "outputs": [],
      "stateMutability": "nonpayable",
      "type": "function"
    },
    {
      "inputs": [
        {
          "internalType": "address",
          "name": "",
          "type": "address"
        },
        {
          "internalType": "uint256",
          "name": "",
          "type": "uint256"
        }
      ],
      "name": "getAuction",
      "outputs": [
        {
          "internalType": "address",
          "name": "",
          "type": "address"
        }
      ],
      "stateMutability": "view",
      "type": "function"
    },
    {
      "inputs": [],
      "name": "initialize",
      "outputs": [],
      "stateMutability": "nonpayable",
      "type": "function"
    },
    {
      "inputs": [],
      "name": "owner",
      "outputs": [
        {
          "internalType": "address",
          "name": "",
          "type": "address"
        }
      ],
      "stateMutability": "view",
      "type": "function"
    },
    {
      "inputs": [],
      "name": "proxiableUUID",
      "outputs": [
        {
          "internalType": "bytes32",
          "name": "",
          "type": "bytes32"
        }
      ],
      "stateMutability": "view",
      "type": "function"
    },
    {
      "inputs": [],
      "name": "renounceOwnership",
      "outputs": [],
      "stateMutability": "nonpayable",
      "type": "function"
    },
    {
      "inputs": [
        {
          "internalType": "address",
          "name": "newOwner",
          "type": "address"
        }
      ],
      "name": "transferOwnership",
      "outputs": [],
      "stateMutability": "nonpayable",
      "type": "function"
    },
    {
      "inputs": [
        {
          "internalType": "address",
          "name": "newImplementation",
          "type": "address"
        },
        {
          "internalType": "bytes",
          "name": "data",
          "type": "bytes"
        }
      ],
      "name": "upgradeToAndCall",
      "outputs": [],
      "stateMutability": "payable",
      "type": "function"
    }
  ],
  "transactionHash": "0x07724e231436ea3251f208afdbaaa3ff400ffec1a32f30f82e3ff71a83498474",
  "args": [],
  "numDeployments": 2,
  "solcInputHash": "37d5fe761d0b97474b3121b68545e714",
  "bytecode": "0x60a06040523073ffffffffffffffffffffffffffffffffffffffff1660809073ffffffffffffffffffffffffffffffffffffffff16815250348015604257600080fd5b50608051614a0961006c60003960008181610a6f01528181610ac40152610c7f0152614a096000f3fe6080604052600436106100915760003560e01c80638129fc1c116100595780638129fc1c1461016e5780638da5cb5b14610185578063ad3cb1cc146101b0578063f2df5047146101db578063f2fde38b1461020457610091565b80634f1ef2861461009657806352d1902d146100b2578063571a26a0146100dd578063715018a61461011a578063762a66a214610131575b600080fd5b6100b060048036038101906100ab91906114cf565b61022d565b005b3480156100be57600080fd5b506100c761024c565b6040516100d49190611544565b60405180910390f35b3480156100e957600080fd5b5061010460048036038101906100ff9190611595565b61027f565b6040516101119190611621565b60405180910390f35b34801561012657600080fd5b5061012f6102be565b005b34801561013d57600080fd5b506101586004803603810190610153919061163c565b6102d2565b604051610165919061168b565b60405180910390f35b34801561017a57600080fd5b50610183610314565b005b34801561019157600080fd5b5061019a6104aa565b6040516101a7919061168b565b60405180910390f35b3480156101bc57600080fd5b506101c56104e2565b6040516101d29190611725565b60405180910390f35b3480156101e757600080fd5b5061020260048036038101906101fd9190611747565b61051b565b005b34801561021057600080fd5b5061022b600480360381019061022691906117c2565b6109e7565b005b610235610a6d565b61023e82610b53565b6102488282610b5e565b5050565b6000610256610c7d565b7f360894a13ba1a3210667c828492db98dca3e2076cc3735a920a3ca505d382bbc60001b905090565b6001818154811061028f57600080fd5b906000526020600020016000915054906101000a900473ffffffffffffffffffffffffffffffffffffffff1681565b6102c6610d04565b6102d06000610d8b565b565b60006020528160005260406000206020528060005260406000206000915091509054906101000a900473ffffffffffffffffffffffffffffffffffffffff1681565b600061031e610e62565b905060008160000160089054906101000a900460ff1615905060008260000160009054906101000a900467ffffffffffffffff1690506000808267ffffffffffffffff1614801561036c5750825b9050600060018367ffffffffffffffff161480156103a1575060003073ffffffffffffffffffffffffffffffffffffffff163b145b9050811580156103af575080155b156103e6576040517ff92ee8a900000000000000000000000000000000000000000000000000000000815260040160405180910390fd5b60018560000160006101000a81548167ffffffffffffffff021916908367ffffffffffffffff16021790555083156104365760018560000160086101000a81548160ff0219169083151502179055505b61043f33610e76565b610447610e8a565b83156104a35760008560000160086101000a81548160ff0219169083151502179055507fc7f505b2f371ae2175ee4913f4499e1f2633a7b5936321eed1cdaeb6115181d2600160405161049a919061183e565b60405180910390a15b5050505050565b6000806104b5610e94565b90508060000160009054906101000a900473ffffffffffffffffffffffffffffffffffffffff1691505090565b6040518060400160405280600581526020017f352e302e3000000000000000000000000000000000000000000000000000000081525081565b3373ffffffffffffffffffffffffffffffffffffffff168573ffffffffffffffffffffffffffffffffffffffff16636352211e866040518263ffffffff1660e01b815260040161056b9190611868565b602060405180830381865afa158015610588573d6000803e3d6000fd5b505050506040513d601f19601f820116820180604052508101906105ac9190611898565b73ffffffffffffffffffffffffffffffffffffffff1614610602576040517f08c379a00000000000000000000000000000000000000000000000000000000081526004016105f990611911565b60405180910390fd5b3073ffffffffffffffffffffffffffffffffffffffff168573ffffffffffffffffffffffffffffffffffffffff1663081812fc866040518263ffffffff1660e01b81526004016106529190611868565b602060405180830381865afa15801561066f573d6000803e3d6000fd5b505050506040513d601f19601f820116820180604052508101906106939190611898565b73ffffffffffffffffffffffffffffffffffffffff16148061072d57508473ffffffffffffffffffffffffffffffffffffffff1663e985e9c533306040518363ffffffff1660e01b81526004016106eb929190611931565b602060405180830381865afa158015610708573d6000803e3d6000fd5b505050506040513d601f19601f8201168201806040525081019061072c9190611992565b5b61076c576040517f08c379a000000000000000000000000000000000000000000000000000000000815260040161076390611a31565b60405180910390fd5b600060405161077a9061130a565b604051809103906000f080158015610796573d6000803e3d6000fd5b5090508073ffffffffffffffffffffffffffffffffffffffff1663871b62368787878787336040518763ffffffff1660e01b81526004016107dc96959493929190611a51565b600060405180830381600087803b1580156107f657600080fd5b505af115801561080a573d6000803e3d6000fd5b505050508573ffffffffffffffffffffffffffffffffffffffff166323b872dd3383886040518463ffffffff1660e01b815260040161084b93929190611ab2565b600060405180830381600087803b15801561086557600080fd5b505af1158015610879573d6000803e3d6000fd5b50505050600060018054905090506001829080600181540180825580915050600190039060005260206000200160009091909190916101000a81548173ffffffffffffffffffffffffffffffffffffffff021916908373ffffffffffffffffffffffffffffffffffffffff160217905550816000808973ffffffffffffffffffffffffffffffffffffffff1673ffffffffffffffffffffffffffffffffffffffff168152602001908152602001600020600088815260200190815260200160002060006101000a81548173ffffffffffffffffffffffffffffffffffffffff021916908373ffffffffffffffffffffffffffffffffffffffff160217905550858773ffffffffffffffffffffffffffffffffffffffff168373ffffffffffffffffffffffffffffffffffffffff167fc020eaff962593ba4d8f22dfe59abd3cefe8dbdc11d3cf03db31a97ef4041fda846040516109d69190611868565b60405180910390a450505050505050565b6109ef610d04565b600073ffffffffffffffffffffffffffffffffffffffff168173ffffffffffffffffffffffffffffffffffffffff1603610a615760006040517f1e4fbdf7000000000000000000000000000000000000000000000000000000008152600401610a58919061168b565b60405180910390fd5b610a6a81610d8b565b50565b7f000000000000000000000000000000000000000000000000000000000000000073ffffffffffffffffffffffffffffffffffffffff163073ffffffffffffffffffffffffffffffffffffffff161480610b1a57507f000000000000000000000000000000000000000000000000000000000000000073ffffffffffffffffffffffffffffffffffffffff16610b01610ebc565b73ffffffffffffffffffffffffffffffffffffffff1614155b15610b51576040517fe07c8dba00000000000000000000000000000000000000000000000000000000815260040160405180910390fd5b565b610b5b610d04565b50565b8173ffffffffffffffffffffffffffffffffffffffff166352d1902d6040518163ffffffff1660e01b8152600401602060405180830381865afa925050508015610bc657506040513d601f19601f82011682018060405250810190610bc39190611b15565b60015b610c0757816040517f4c9c8ce3000000000000000000000000000000000000000000000000000000008152600401610bfe919061168b565b60405180910390fd5b7f360894a13ba1a3210667c828492db98dca3e2076cc3735a920a3ca505d382bbc60001b8114610c6e57806040517faa1d49a4000000000000000000000000000000000000000000000000000000008152600401610c659190611544565b60405180910390fd5b610c788383610f13565b505050565b7f000000000000000000000000000000000000000000000000000000000000000073ffffffffffffffffffffffffffffffffffffffff163073ffffffffffffffffffffffffffffffffffffffff1614610d02576040517fe07c8dba00000000000000000000000000000000000000000000000000000000815260040160405180910390fd5b565b610d0c610f86565b73ffffffffffffffffffffffffffffffffffffffff16610d2a6104aa565b73ffffffffffffffffffffffffffffffffffffffff1614610d8957610d4d610f86565b6040517f118cdaa7000000000000000000000000000000000000000000000000000000008152600401610d80919061168b565b60405180910390fd5b565b6000610d95610e94565b905060008160000160009054906101000a900473ffffffffffffffffffffffffffffffffffffffff169050828260000160006101000a81548173ffffffffffffffffffffffffffffffffffffffff021916908373ffffffffffffffffffffffffffffffffffffffff1602179055508273ffffffffffffffffffffffffffffffffffffffff168173ffffffffffffffffffffffffffffffffffffffff167f8be0079c531659141344cd1fd0a4f28419497f9722a3daafe3b4186f6b6457e060405160405180910390a3505050565b600080610e6d610f8e565b90508091505090565b610e7e610fb9565b610e8781610ff9565b50565b610e92610fb9565b565b60007f9016d09d72d40fdae2fd8ceac6b6234c7706214fd39c1cd1e609a0528c199300905090565b6000610eea7f360894a13ba1a3210667c828492db98dca3e2076cc3735a920a3ca505d382bbc60001b61107f565b60000160009054906101000a900473ffffffffffffffffffffffffffffffffffffffff16905090565b610f1c82611089565b8173ffffffffffffffffffffffffffffffffffffffff167fbc7cd75a20ee27fd9adebab32041f755214dbc6bffa90cc0225b39da2e5c2d3b60405160405180910390a2600081511115610f7957610f738282611156565b50610f82565b610f816111da565b5b5050565b600033905090565b60007ff0c57e16840df040f15088dc2f81fe391c3923bec73e23a9662efc9c229c6a0060001b905090565b610fc1611217565b610ff7576040517fd7e6bcf800000000000000000000000000000000000000000000000000000000815260040160405180910390fd5b565b611001610fb9565b600073ffffffffffffffffffffffffffffffffffffffff168173ffffffffffffffffffffffffffffffffffffffff16036110735760006040517f1e4fbdf700000000000000000000000000000000000000000000000000000000815260040161106a919061168b565b60405180910390fd5b61107c81610d8b565b50565b6000819050919050565b60008173ffffffffffffffffffffffffffffffffffffffff163b036110e557806040517f4c9c8ce30000000000000000000000000000000000000000000000000000000081526004016110dc919061168b565b60405180910390fd5b806111127f360894a13ba1a3210667c828492db98dca3e2076cc3735a920a3ca505d382bbc60001b61107f565b60000160006101000a81548173ffffffffffffffffffffffffffffffffffffffff021916908373ffffffffffffffffffffffffffffffffffffffff16021790555050565b60606000808473ffffffffffffffffffffffffffffffffffffffff16846040516111809190611b89565b600060405180830381855af49150503d80600081146111bb576040519150601f19603f3d011682016040523d82523d6000602084013e6111c0565b606091505b50915091506111d0858383611237565b9250505092915050565b6000341115611215576040517fb398979f00000000000000000000000000000000000000000000000000000000815260040160405180910390fd5b565b6000611221610e62565b60000160089054906101000a900460ff16905090565b60608261124c57611247826112c6565b6112be565b60008251148015611274575060008473ffffffffffffffffffffffffffffffffffffffff163b145b156112b657836040517f9996b3150000000000000000000000000000000000000000000000000000000081526004016112ad919061168b565b60405180910390fd5b8190506112bf565b5b9392505050565b6000815111156112d857805160208201fd5b6040517fd6bda27500000000000000000000000000000000000000000000000000000000815260040160405180910390fd5b612e3380611ba183390190565b6000604051905090565b600080fd5b600080fd5b600073ffffffffffffffffffffffffffffffffffffffff82169050919050565b60006113568261132b565b9050919050565b6113668161134b565b811461137157600080fd5b50565b6000813590506113838161135d565b92915050565b600080fd5b600080fd5b6000601f19601f8301169050919050565b7f4e487b7100000000000000000000000000000000000000000000000000000000600052604160045260246000fd5b6113dc82611393565b810181811067ffffffffffffffff821117156113fb576113fa6113a4565b5b80604052505050565b600061140e611317565b905061141a82826113d3565b919050565b600067ffffffffffffffff82111561143a576114396113a4565b5b61144382611393565b9050602081019050919050565b82818337600083830152505050565b600061147261146d8461141f565b611404565b90508281526020810184848401111561148e5761148d61138e565b5b611499848285611450565b509392505050565b600082601f8301126114b6576114b5611389565b5b81356114c684826020860161145f565b91505092915050565b600080604083850312156114e6576114e5611321565b5b60006114f485828601611374565b925050602083013567ffffffffffffffff81111561151557611514611326565b5b611521858286016114a1565b9150509250929050565b6000819050919050565b61153e8161152b565b82525050565b60006020820190506115596000830184611535565b92915050565b6000819050919050565b6115728161155f565b811461157d57600080fd5b50565b60008135905061158f81611569565b92915050565b6000602082840312156115ab576115aa611321565b5b60006115b984828501611580565b91505092915050565b6000819050919050565b60006115e76115e26115dd8461132b565b6115c2565b61132b565b9050919050565b60006115f9826115cc565b9050919050565b600061160b826115ee565b9050919050565b61161b81611600565b82525050565b60006020820190506116366000830184611612565b92915050565b6000806040838503121561165357611652611321565b5b600061166185828601611374565b925050602061167285828601611580565b9150509250929050565b6116858161134b565b82525050565b60006020820190506116a0600083018461167c565b92915050565b600081519050919050565b600082825260208201905092915050565b60005b838110156116e05780820151818401526020810190506116c5565b60008484015250505050565b60006116f7826116a6565b61170181856116b1565b93506117118185602086016116c2565b61171a81611393565b840191505092915050565b6000602082019050818103600083015261173f81846116ec565b905092915050565b600080600080600060a0868803121561176357611762611321565b5b600061177188828901611374565b955050602061178288828901611580565b945050604061179388828901611374565b93505060606117a488828901611580565b92505060806117b588828901611580565b9150509295509295909350565b6000602082840312156117d8576117d7611321565b5b60006117e684828501611374565b91505092915050565b6000819050919050565b600067ffffffffffffffff82169050919050565b600061182861182361181e846117ef565b6115c2565b6117f9565b9050919050565b6118388161180d565b82525050565b6000602082019050611853600083018461182f565b92915050565b6118628161155f565b82525050565b600060208201905061187d6000830184611859565b92915050565b6000815190506118928161135d565b92915050565b6000602082840312156118ae576118ad611321565b5b60006118bc84828501611883565b91505092915050565b7f63616c6c6572206e6f7420746f6b656e206f776e657200000000000000000000600082015250565b60006118fb6016836116b1565b9150611906826118c5565b602082019050919050565b6000602082019050818103600083015261192a816118ee565b9050919050565b6000604082019050611946600083018561167c565b611953602083018461167c565b9392505050565b60008115159050919050565b61196f8161195a565b811461197a57600080fd5b50565b60008151905061198c81611966565b92915050565b6000602082840312156119a8576119a7611321565b5b60006119b68482850161197d565b91505092915050565b7f666163746f7279206e6f7420617070726f76656420746f207472616e7366657260008201527f20746f6b656e0000000000000000000000000000000000000000000000000000602082015250565b6000611a1b6026836116b1565b9150611a26826119bf565b604082019050919050565b60006020820190508181036000830152611a4a81611a0e565b9050919050565b600060c082019050611a66600083018961167c565b611a736020830188611859565b611a80604083018761167c565b611a8d6060830186611859565b611a9a6080830185611859565b611aa760a083018461167c565b979650505050505050565b6000606082019050611ac7600083018661167c565b611ad4602083018561167c565b611ae16040830184611859565b949350505050565b611af28161152b565b8114611afd57600080fd5b50565b600081519050611b0f81611ae9565b92915050565b600060208284031215611b2b57611b2a611321565b5b6000611b3984828501611b00565b91505092915050565b600081519050919050565b600081905092915050565b6000611b6382611b42565b611b6d8185611b4d565b9350611b7d8185602086016116c2565b80840191505092915050565b6000611b958284611b58565b91508190509291505056fe60a06040523073ffffffffffffffffffffffffffffffffffffffff1660809073ffffffffffffffffffffffffffffffffffffffff16815250348015604257600080fd5b50608051612dc761006c60003960008181611750015281816117a501526119600152612dc76000f3fe6080604052600436106101355760003560e01c8063871b6236116100ab578063c45a01551161006f578063c45a0155146103b2578063d56d229d146103dd578063d57bde7914610408578063d6fbf20214610433578063e7078f921461045e578063f2fde38b1461049b57610135565b8063871b6236146102cb5780638da5cb5b146102f457806391f901571461031f5780639dcb511a1461034a578063ad3cb1cc1461038757610135565b80633013ce29116100fd5780633013ce29146102025780634f1ef2861461022d57806352d1902d14610249578063715018a61461027457806376e112861461028b5780637b433687146102b457610135565b806308551a531461013a5780630fb5a6b41461016557806312fa6feb1461019057806317d70f7c146101bb5780631ea52c73146101e6575b600080fd5b34801561014657600080fd5b5061014f6104c4565b60405161015c9190612087565b60405180910390f35b34801561017157600080fd5b5061017a6104ea565b60405161018791906120bb565b60405180910390f35b34801561019c57600080fd5b506101a56104f0565b6040516101b291906120f1565b60405180910390f35b3480156101c757600080fd5b506101d0610503565b6040516101dd91906120bb565b60405180910390f35b61020060048036038101906101fb9190612178565b610509565b005b34801561020e57600080fd5b50610217610a05565b6040516102249190612087565b60405180910390f35b610247600480360381019061024291906122fe565b610a2b565b005b34801561025557600080fd5b5061025e610a4a565b60405161026b9190612373565b60405180910390f35b34801561028057600080fd5b50610289610a7d565b005b34801561029757600080fd5b506102b260048036038101906102ad919061238e565b610a91565b005b3480156102c057600080fd5b506102c9610be0565b005b3480156102d757600080fd5b506102f260048036038101906102ed91906123ce565b61111c565b005b34801561030057600080fd5b506103096113e3565b6040516103169190612087565b60405180910390f35b34801561032b57600080fd5b5061033461141b565b6040516103419190612087565b60405180910390f35b34801561035657600080fd5b50610371600480360381019061036c919061245b565b611441565b60405161037e91906124e7565b60405180910390f35b34801561039357600080fd5b5061039c611474565b6040516103a99190612581565b60405180910390f35b3480156103be57600080fd5b506103c76114ad565b6040516103d49190612087565b60405180910390f35b3480156103e957600080fd5b506103f26114d1565b6040516103ff9190612087565b60405180910390f35b34801561041457600080fd5b5061041d6114f7565b60405161042a91906120bb565b60405180910390f35b34801561043f57600080fd5b506104486114fd565b60405161045591906120bb565b60405180910390f35b34801561046a57600080fd5b506104856004803603810190610480919061245b565b611503565b60405161049291906125bc565b60405180910390f35b3480156104a757600080fd5b506104c260048036038101906104bd919061245b565b611658565b005b600360009054906101000a900473ffffffffffffffffffffffffffffffffffffffff1681565b60065481565b600960009054906101000a900460ff1681565b60025481565b6105116116de565b6006544210610555576040517f08c379a000000000000000000000000000000000000000000000000000000000815260040161054c90612623565b60405180910390fd5b60008073ffffffffffffffffffffffffffffffffffffffff168273ffffffffffffffffffffffffffffffffffffffff16036105a9573492506105976000611503565b836105a29190612672565b90506105c0565b6105b282611503565b836105bd9190612672565b90505b60006105ed600460009054906101000a900473ffffffffffffffffffffffffffffffffffffffff16611503565b6005546105fa9190612672565b90506000610629600460009054906101000a900473ffffffffffffffffffffffffffffffffffffffff16611503565b6008546106369190612672565b90508183101561067b576040517f08c379a000000000000000000000000000000000000000000000000000000000815260040161067290612726565b60405180910390fd5b8083116106bd576040517f08c379a00000000000000000000000000000000000000000000000000000000081526004016106b490612792565b60405180910390fd5b600073ffffffffffffffffffffffffffffffffffffffff16600760009054906101000a900473ffffffffffffffffffffffffffffffffffffffff1673ffffffffffffffffffffffffffffffffffffffff16146108de57600073ffffffffffffffffffffffffffffffffffffffff16600460009054906101000a900473ffffffffffffffffffffffffffffffffffffffff1673ffffffffffffffffffffffffffffffffffffffff16036107d957600760009054906101000a900473ffffffffffffffffffffffffffffffffffffffff1673ffffffffffffffffffffffffffffffffffffffff166108fc6008549081150290604051600060405180830381858888f193505050501580156107d3573d6000803e3d6000fd5b506108dd565b600460009054906101000a900473ffffffffffffffffffffffffffffffffffffffff1673ffffffffffffffffffffffffffffffffffffffff1663a9059cbb600760009054906101000a900473ffffffffffffffffffffffffffffffffffffffff166008546040518363ffffffff1660e01b815260040161085a9291906127b2565b6020604051808303816000875af1158015610879573d6000803e3d6000fd5b505050506040513d601f19601f8201168201806040525081019061089d9190612807565b6108dc576040517f08c379a00000000000000000000000000000000000000000000000000000000081526004016108d390612880565b60405180910390fd5b5b5b33600760006101000a81548173ffffffffffffffffffffffffffffffffffffffff021916908373ffffffffffffffffffffffffffffffffffffffff160217905550600073ffffffffffffffffffffffffffffffffffffffff168473ffffffffffffffffffffffffffffffffffffffff160361095f5734600881905550610967565b846008819055505b83600460006101000a81548173ffffffffffffffffffffffffffffffffffffffff021916908373ffffffffffffffffffffffffffffffffffffffff1602179055503373ffffffffffffffffffffffffffffffffffffffff167f3fabff0a9c3ecd6814702e247fa9733e5d0aa69e3a38590f92cb18f623a2254d346040516109ee91906120bb565b60405180910390a2505050610a01611735565b5050565b600460009054906101000a900473ffffffffffffffffffffffffffffffffffffffff1681565b610a3361174e565b610a3c82611834565b610a46828261183f565b5050565b6000610a5461195e565b7f360894a13ba1a3210667c828492db98dca3e2076cc3735a920a3ca505d382bbc60001b905090565b610a856119e5565b610a8f6000611a6c565b565b610a996113e3565b73ffffffffffffffffffffffffffffffffffffffff163373ffffffffffffffffffffffffffffffffffffffff161480610b1f5750600360009054906101000a900473ffffffffffffffffffffffffffffffffffffffff1673ffffffffffffffffffffffffffffffffffffffff163373ffffffffffffffffffffffffffffffffffffffff16145b610b5e576040517f08c379a0000000000000000000000000000000000000000000000000000000008152600401610b5590612912565b60405180910390fd5b80600a60008473ffffffffffffffffffffffffffffffffffffffff1673ffffffffffffffffffffffffffffffffffffffff16815260200190815260200160002060006101000a81548173ffffffffffffffffffffffffffffffffffffffff021916908373ffffffffffffffffffffffffffffffffffffffff1602179055505050565b610be86116de565b600654421015610c2d576040517f08c379a0000000000000000000000000000000000000000000000000000000008152600401610c249061297e565b60405180910390fd5b600960009054906101000a900460ff1615610c7d576040517f08c379a0000000000000000000000000000000000000000000000000000000008152600401610c7490612623565b60405180910390fd5b6001600960006101000a81548160ff021916908315150217905550600073ffffffffffffffffffffffffffffffffffffffff16600760009054906101000a900473ffffffffffffffffffffffffffffffffffffffff1673ffffffffffffffffffffffffffffffffffffffff161461100c57600160009054906101000a900473ffffffffffffffffffffffffffffffffffffffff1673ffffffffffffffffffffffffffffffffffffffff166323b872dd30600760009054906101000a900473ffffffffffffffffffffffffffffffffffffffff166002546040518463ffffffff1660e01b8152600401610d719392919061299e565b600060405180830381600087803b158015610d8b57600080fd5b505af1158015610d9f573d6000803e3d6000fd5b50505050600073ffffffffffffffffffffffffffffffffffffffff16600460009054906101000a900473ffffffffffffffffffffffffffffffffffffffff1673ffffffffffffffffffffffffffffffffffffffff1603610ecf576000600360009054906101000a900473ffffffffffffffffffffffffffffffffffffffff1673ffffffffffffffffffffffffffffffffffffffff16600854604051610e4390612a06565b60006040518083038185875af1925050503d8060008114610e80576040519150601f19603f3d011682016040523d82523d6000602084013e610e85565b606091505b5050905080610ec9576040517f08c379a0000000000000000000000000000000000000000000000000000000008152600401610ec090612a67565b60405180910390fd5b50610f95565b600460009054906101000a900473ffffffffffffffffffffffffffffffffffffffff1673ffffffffffffffffffffffffffffffffffffffff1663a9059cbb600360009054906101000a900473ffffffffffffffffffffffffffffffffffffffff166008546040518363ffffffff1660e01b8152600401610f509291906127b2565b6020604051808303816000875af1158015610f6f573d6000803e3d6000fd5b505050506040513d601f19601f82011682018060405250810190610f939190612807565b505b600760009054906101000a900473ffffffffffffffffffffffffffffffffffffffff1673ffffffffffffffffffffffffffffffffffffffff167fdaec4582d5d9595688c8c98545fdd1c696d41c6aeaeb636737e84ed2f5c00eda600854604051610fff91906120bb565b60405180910390a2611112565b600160009054906101000a900473ffffffffffffffffffffffffffffffffffffffff1673ffffffffffffffffffffffffffffffffffffffff166323b872dd30600360009054906101000a900473ffffffffffffffffffffffffffffffffffffffff166002546040518463ffffffff1660e01b815260040161108f9392919061299e565b600060405180830381600087803b1580156110a957600080fd5b505af11580156110bd573d6000803e3d6000fd5b50505050600073ffffffffffffffffffffffffffffffffffffffff167fdaec4582d5d9595688c8c98545fdd1c696d41c6aeaeb636737e84ed2f5c00eda60006040516111099190612ac2565b60405180910390a25b61111a611735565b565b6000611126611b43565b905060008160000160089054906101000a900460ff1615905060008260000160009054906101000a900467ffffffffffffffff1690506000808267ffffffffffffffff161480156111745750825b9050600060018367ffffffffffffffff161480156111a9575060003073ffffffffffffffffffffffffffffffffffffffff163b145b9050811580156111b7575080155b156111ee576040517ff92ee8a900000000000000000000000000000000000000000000000000000000815260040160405180910390fd5b60018560000160006101000a81548167ffffffffffffffff021916908367ffffffffffffffff160217905550831561123e5760018560000160086101000a81548160ff0219169083151502179055505b8a600160006101000a81548173ffffffffffffffffffffffffffffffffffffffff021916908373ffffffffffffffffffffffffffffffffffffffff1602179055508960028190555088600460006101000a81548173ffffffffffffffffffffffffffffffffffffffff021916908373ffffffffffffffffffffffffffffffffffffffff1602179055508760058190555086426112da9190612add565b60068190555085600360006101000a81548173ffffffffffffffffffffffffffffffffffffffff021916908373ffffffffffffffffffffffffffffffffffffffff160217905550336000806101000a81548173ffffffffffffffffffffffffffffffffffffffff021916908373ffffffffffffffffffffffffffffffffffffffff16021790555061136a33611b57565b611372611b6b565b61137a611b7d565b83156113d65760008560000160086101000a81548160ff0219169083151502179055507fc7f505b2f371ae2175ee4913f4499e1f2633a7b5936321eed1cdaeb6115181d260016040516113cd9190612b60565b60405180910390a15b5050505050505050505050565b6000806113ee611b87565b90508060000160009054906101000a900473ffffffffffffffffffffffffffffffffffffffff1691505090565b600760009054906101000a900473ffffffffffffffffffffffffffffffffffffffff1681565b600a6020528060005260406000206000915054906101000a900473ffffffffffffffffffffffffffffffffffffffff1681565b6040518060400160405280600581526020017f352e302e3000000000000000000000000000000000000000000000000000000081525081565b60008054906101000a900473ffffffffffffffffffffffffffffffffffffffff1681565b600160009054906101000a900473ffffffffffffffffffffffffffffffffffffffff1681565b60085481565b60055481565b600080600a60008473ffffffffffffffffffffffffffffffffffffffff1673ffffffffffffffffffffffffffffffffffffffff16815260200190815260200160002060009054906101000a900473ffffffffffffffffffffffffffffffffffffffff169050600073ffffffffffffffffffffffffffffffffffffffff168173ffffffffffffffffffffffffffffffffffffffff16036115d7576040517f08c379a00000000000000000000000000000000000000000000000000000000081526004016115ce90612bc7565b60405180910390fd5b60008173ffffffffffffffffffffffffffffffffffffffff1663feaf968c6040518163ffffffff1660e01b815260040160a060405180830381865afa158015611624573d6000803e3d6000fd5b505050506040513d601f19601f820116820180604052508101906116489190612c6a565b5050509150508092505050919050565b6116606119e5565b600073ffffffffffffffffffffffffffffffffffffffff168173ffffffffffffffffffffffffffffffffffffffff16036116d25760006040517f1e4fbdf70000000000000000000000000000000000000000000000000000000081526004016116c99190612087565b60405180910390fd5b6116db81611a6c565b50565b60006116e8611baf565b90506002816000015403611728576040517f3ee5aeb500000000000000000000000000000000000000000000000000000000815260040160405180910390fd5b6002816000018190555050565b600061173f611baf565b90506001816000018190555050565b7f000000000000000000000000000000000000000000000000000000000000000073ffffffffffffffffffffffffffffffffffffffff163073ffffffffffffffffffffffffffffffffffffffff1614806117fb57507f000000000000000000000000000000000000000000000000000000000000000073ffffffffffffffffffffffffffffffffffffffff166117e2611bd7565b73ffffffffffffffffffffffffffffffffffffffff1614155b15611832576040517fe07c8dba00000000000000000000000000000000000000000000000000000000815260040160405180910390fd5b565b61183c6119e5565b50565b8173ffffffffffffffffffffffffffffffffffffffff166352d1902d6040518163ffffffff1660e01b8152600401602060405180830381865afa9250505080156118a757506040513d601f19601f820116820180604052508101906118a49190612d11565b60015b6118e857816040517f4c9c8ce30000000000000000000000000000000000000000000000000000000081526004016118df9190612087565b60405180910390fd5b7f360894a13ba1a3210667c828492db98dca3e2076cc3735a920a3ca505d382bbc60001b811461194f57806040517faa1d49a40000000000000000000000000000000000000000000000000000000081526004016119469190612373565b60405180910390fd5b6119598383611c2e565b505050565b7f000000000000000000000000000000000000000000000000000000000000000073ffffffffffffffffffffffffffffffffffffffff163073ffffffffffffffffffffffffffffffffffffffff16146119e3576040517fe07c8dba00000000000000000000000000000000000000000000000000000000815260040160405180910390fd5b565b6119ed611ca1565b73ffffffffffffffffffffffffffffffffffffffff16611a0b6113e3565b73ffffffffffffffffffffffffffffffffffffffff1614611a6a57611a2e611ca1565b6040517f118cdaa7000000000000000000000000000000000000000000000000000000008152600401611a619190612087565b60405180910390fd5b565b6000611a76611b87565b905060008160000160009054906101000a900473ffffffffffffffffffffffffffffffffffffffff169050828260000160006101000a81548173ffffffffffffffffffffffffffffffffffffffff021916908373ffffffffffffffffffffffffffffffffffffffff1602179055508273ffffffffffffffffffffffffffffffffffffffff168173ffffffffffffffffffffffffffffffffffffffff167f8be0079c531659141344cd1fd0a4f28419497f9722a3daafe3b4186f6b6457e060405160405180910390a3505050565b600080611b4e611ca9565b90508091505090565b611b5f611cd4565b611b6881611d14565b50565b611b73611cd4565b611b7b611d9a565b565b611b85611cd4565b565b60007f9016d09d72d40fdae2fd8ceac6b6234c7706214fd39c1cd1e609a0528c199300905090565b60007f9b779b17422d0df92223018b32b4d1fa46e071723d6817e2486d003becc55f00905090565b6000611c057f360894a13ba1a3210667c828492db98dca3e2076cc3735a920a3ca505d382bbc60001b611dbb565b60000160009054906101000a900473ffffffffffffffffffffffffffffffffffffffff16905090565b611c3782611dc5565b8173ffffffffffffffffffffffffffffffffffffffff167fbc7cd75a20ee27fd9adebab32041f755214dbc6bffa90cc0225b39da2e5c2d3b60405160405180910390a2600081511115611c9457611c8e8282611e92565b50611c9d565b611c9c611f16565b5b5050565b600033905090565b60007ff0c57e16840df040f15088dc2f81fe391c3923bec73e23a9662efc9c229c6a0060001b905090565b611cdc611f53565b611d12576040517fd7e6bcf800000000000000000000000000000000000000000000000000000000815260040160405180910390fd5b565b611d1c611cd4565b600073ffffffffffffffffffffffffffffffffffffffff168173ffffffffffffffffffffffffffffffffffffffff1603611d8e5760006040517f1e4fbdf7000000000000000000000000000000000000000000000000000000008152600401611d859190612087565b60405180910390fd5b611d9781611a6c565b50565b611da2611cd4565b6000611dac611baf565b90506001816000018190555050565b6000819050919050565b60008173ffffffffffffffffffffffffffffffffffffffff163b03611e2157806040517f4c9c8ce3000000000000000000000000000000000000000000000000000000008152600401611e189190612087565b60405180910390fd5b80611e4e7f360894a13ba1a3210667c828492db98dca3e2076cc3735a920a3ca505d382bbc60001b611dbb565b60000160006101000a81548173ffffffffffffffffffffffffffffffffffffffff021916908373ffffffffffffffffffffffffffffffffffffffff16021790555050565b60606000808473ffffffffffffffffffffffffffffffffffffffff1684604051611ebc9190612d7a565b600060405180830381855af49150503d8060008114611ef7576040519150601f19603f3d011682016040523d82523d6000602084013e611efc565b606091505b5091509150611f0c858383611f73565b9250505092915050565b6000341115611f51576040517fb398979f00000000000000000000000000000000000000000000000000000000815260040160405180910390fd5b565b6000611f5d611b43565b60000160089054906101000a900460ff16905090565b606082611f8857611f8382612002565b611ffa565b60008251148015611fb0575060008473ffffffffffffffffffffffffffffffffffffffff163b145b15611ff257836040517f9996b315000000000000000000000000000000000000000000000000000000008152600401611fe99190612087565b60405180910390fd5b819050611ffb565b5b9392505050565b60008151111561201457805160208201fd5b6040517fd6bda27500000000000000000000000000000000000000000000000000000000815260040160405180910390fd5b600073ffffffffffffffffffffffffffffffffffffffff82169050919050565b600061207182612046565b9050919050565b61208181612066565b82525050565b600060208201905061209c6000830184612078565b92915050565b6000819050919050565b6120b5816120a2565b82525050565b60006020820190506120d060008301846120ac565b92915050565b60008115159050919050565b6120eb816120d6565b82525050565b600060208201905061210660008301846120e2565b92915050565b6000604051905090565b600080fd5b600080fd5b612129816120a2565b811461213457600080fd5b50565b60008135905061214681612120565b92915050565b61215581612066565b811461216057600080fd5b50565b6000813590506121728161214c565b92915050565b6000806040838503121561218f5761218e612116565b5b600061219d85828601612137565b92505060206121ae85828601612163565b9150509250929050565b600080fd5b600080fd5b6000601f19601f8301169050919050565b7f4e487b7100000000000000000000000000000000000000000000000000000000600052604160045260246000fd5b61220b826121c2565b810181811067ffffffffffffffff8211171561222a576122296121d3565b5b80604052505050565b600061223d61210c565b90506122498282612202565b919050565b600067ffffffffffffffff821115612269576122686121d3565b5b612272826121c2565b9050602081019050919050565b82818337600083830152505050565b60006122a161229c8461224e565b612233565b9050828152602081018484840111156122bd576122bc6121bd565b5b6122c884828561227f565b509392505050565b600082601f8301126122e5576122e46121b8565b5b81356122f584826020860161228e565b91505092915050565b6000806040838503121561231557612314612116565b5b600061232385828601612163565b925050602083013567ffffffffffffffff8111156123445761234361211b565b5b612350858286016122d0565b9150509250929050565b6000819050919050565b61236d8161235a565b82525050565b60006020820190506123886000830184612364565b92915050565b600080604083850312156123a5576123a4612116565b5b60006123b385828601612163565b92505060206123c485828601612163565b9150509250929050565b60008060008060008060c087890312156123eb576123ea612116565b5b60006123f989828a01612163565b965050602061240a89828a01612137565b955050604061241b89828a01612163565b945050606061242c89828a01612137565b935050608061243d89828a01612137565b92505060a061244e89828a01612163565b9150509295509295509295565b60006020828403121561247157612470612116565b5b600061247f84828501612163565b91505092915050565b6000819050919050565b60006124ad6124a86124a384612046565b612488565b612046565b9050919050565b60006124bf82612492565b9050919050565b60006124d1826124b4565b9050919050565b6124e1816124c6565b82525050565b60006020820190506124fc60008301846124d8565b92915050565b600081519050919050565b600082825260208201905092915050565b60005b8381101561253c578082015181840152602081019050612521565b60008484015250505050565b600061255382612502565b61255d818561250d565b935061256d81856020860161251e565b612576816121c2565b840191505092915050565b6000602082019050818103600083015261259b8184612548565b905092915050565b6000819050919050565b6125b6816125a3565b82525050565b60006020820190506125d160008301846125ad565b92915050565b7f41756374696f6e20616c726561647920656e6465640000000000000000000000600082015250565b600061260d60158361250d565b9150612618826125d7565b602082019050919050565b6000602082019050818103600083015261263c81612600565b9050919050565b7f4e487b7100000000000000000000000000000000000000000000000000000000600052601160045260246000fd5b600061267d826120a2565b9150612688836120a2565b9250828202612696816120a2565b915082820484148315176126ad576126ac612643565b5b5092915050565b7f426964206d757374206265206174206c6561737420746865207374617274696e60008201527f6720707269636500000000000000000000000000000000000000000000000000602082015250565b600061271060278361250d565b915061271b826126b4565b604082019050919050565b6000602082019050818103600083015261273f81612703565b9050919050565b7f546865726520616c726561647920697320612068696768657220626964000000600082015250565b600061277c601d8361250d565b915061278782612746565b602082019050919050565b600060208201905081810360008301526127ab8161276f565b9050919050565b60006040820190506127c76000830185612078565b6127d460208301846120ac565b9392505050565b6127e4816120d6565b81146127ef57600080fd5b50565b600081519050612801816127db565b92915050565b60006020828403121561281d5761281c612116565b5b600061282b848285016127f2565b91505092915050565b7f455243323020726566756e64206661696c656400000000000000000000000000600082015250565b600061286a60138361250d565b915061287582612834565b602082019050919050565b600060208201905081810360008301526128998161285d565b9050919050565b7f4f6e6c79206f776e6572206f722073656c6c65722063616e207365742070726960008201527f6365206665656400000000000000000000000000000000000000000000000000602082015250565b60006128fc60278361250d565b9150612907826128a0565b604082019050919050565b6000602082019050818103600083015261292b816128ef565b9050919050565b7f41756374696f6e206e6f742079657420656e6465640000000000000000000000600082015250565b600061296860158361250d565b915061297382612932565b602082019050919050565b600060208201905081810360008301526129978161295b565b9050919050565b60006060820190506129b36000830186612078565b6129c06020830185612078565b6129cd60408301846120ac565b949350505050565b600081905092915050565b50565b60006129f06000836129d5565b91506129fb826129e0565b600082019050919050565b6000612a11826129e3565b9150819050919050565b7f455448207472616e73666572206661696c656400000000000000000000000000600082015250565b6000612a5160138361250d565b9150612a5c82612a1b565b602082019050919050565b60006020820190508181036000830152612a8081612a44565b9050919050565b6000819050919050565b6000612aac612aa7612aa284612a87565b612488565b6120a2565b9050919050565b612abc81612a91565b82525050565b6000602082019050612ad76000830184612ab3565b92915050565b6000612ae8826120a2565b9150612af3836120a2565b9250828201905080821115612b0b57612b0a612643565b5b92915050565b6000819050919050565b600067ffffffffffffffff82169050919050565b6000612b4a612b45612b4084612b11565b612488565b612b1b565b9050919050565b612b5a81612b2f565b82525050565b6000602082019050612b756000830184612b51565b92915050565b7f50726963652066656564206e6f74207365740000000000000000000000000000600082015250565b6000612bb160128361250d565b9150612bbc82612b7b565b602082019050919050565b60006020820190508181036000830152612be081612ba4565b9050919050565b600069ffffffffffffffffffff82169050919050565b612c0681612be7565b8114612c1157600080fd5b50565b600081519050612c2381612bfd565b92915050565b612c32816125a3565b8114612c3d57600080fd5b50565b600081519050612c4f81612c29565b92915050565b600081519050612c6481612120565b92915050565b600080600080600060a08688031215612c8657612c85612116565b5b6000612c9488828901612c14565b9550506020612ca588828901612c40565b9450506040612cb688828901612c55565b9350506060612cc788828901612c55565b9250506080612cd888828901612c14565b9150509295509295909350565b612cee8161235a565b8114612cf957600080fd5b50565b600081519050612d0b81612ce5565b92915050565b600060208284031215612d2757612d26612116565b5b6000612d3584828501612cfc565b91505092915050565b600081519050919050565b6000612d5482612d3e565b612d5e81856129d5565b9350612d6e81856020860161251e565b80840191505092915050565b6000612d868284612d49565b91508190509291505056fea26469706673582212205b53235dc82c897cf9efa518aec046d69a2ce41ca073541c99fb3150a790d3c064736f6c634300081c0033a26469706673582212208ee3380fb5e99faac138d7647797229e1e8d17f8d4c26bfb85131efc1b15ab8464736f6c634300081c0033",
  "devdoc": {
    "errors": {
      "AddressEmptyCode(address)": [
        {
          "details": "There's no code at `target` (it is not a contract)."
        }
      ],
      "ERC1967InvalidImplementation(address)": [
        {
          "details": "The `implementation` of the proxy is invalid."
        }
      ],
      "ERC1967NonPayable()": [
        {
          "details": "An upgrade function sees `msg.value > 0` that may be lost."
        }
      ],
      "FailedCall()": [
        {
          "details": "A call to an address target failed. The target may have reverted."
        }
      ],
      "InvalidInitialization()": [
        {
          "details": "The contract is already initialized."
        }
      ],
      "NotInitializing()": [
        {
          "details": "The contract is not initializing."
        }
      ],
      "OwnableInvalidOwner(address)": [
        {
          "details": "The owner is not a valid owner account. (eg. `address(0)`)"
        }
      ],
      "OwnableUnauthorizedAccount(address)": [
        {
          "details": "The caller account is not authorized to perform an operation."
        }
      ],
      "UUPSUnauthorizedCallContext()": [
        {
          "details": "The call is from an unauthorized context."
        }
      ],
      "UUPSUnsupportedProxiableUUID(bytes32)": [
        {
          "details": "The storage `slot` is unsupported as a UUID."
        }
      ]
    },
    "events": {
      "Initialized(uint64)": {
        "details": "Triggered when the contract has been initialized or reinitialized."
      },
      "Upgraded(address)": {
        "details": "Emitted when the implementation is upgraded."
      }
    },
    "kind": "dev",
    "methods": {
      "owner()": {
        "details": "Returns the address of the current owner."
      },
      "proxiableUUID()": {
        "details": "Implementation of the ERC-1822 {proxiableUUID} function. This returns the storage slot used by the implementation. It is used to validate the implementation's compatibility when performing an upgrade. IMPORTANT: A proxy pointing at a proxiable contract should not be considered proxiable itself, because this risks bricking a proxy that upgrades to it, by delegating to itself until out of gas. Thus it is critical that this function revert if invoked through a proxy. This is guaranteed by the `notDelegated` modifier."
      },
      "renounceOwnership()": {
        "details": "Leaves the contract without owner. It will not be possible to call `onlyOwner` functions. Can only be called by the current owner. NOTE: Renouncing ownership will leave the contract without an owner, thereby disabling any functionality that is only available to the owner."
      },
      "transferOwnership(address)": {
        "details": "Transfers ownership of the contract to a new account (`newOwner`). Can only be called by the current owner."
      },
      "upgradeToAndCall(address,bytes)": {
        "custom:oz-upgrades-unsafe-allow-reachable": "delegatecall",
        "details": "Upgrade the implementation of the proxy to `newImplementation`, and subsequently execute the function call encoded in `data`. Calls {_authorizeUpgrade}. Emits an {Upgraded} event."
      }
    },
    "version": 1
  },
  "userdoc": {
    "kind": "user",
    "methods": {},
    "version": 1
  },
  "storageLayout": {
    "storage": [
      {
        "astId": 8556,
        "contract": "contracts/NFTAuctionFactory.sol:NFTAuctionFactory",
        "label": "getAuction",
        "offset": 0,
        "slot": "0",
        "type": "t_mapping(t_address,t_mapping(t_uint256,t_address))"
      },
      {
        "astId": 8560,
        "contract": "contracts/NFTAuctionFactory.sol:NFTAuctionFactory",
        "label": "auctions",
        "offset": 0,
        "slot": "1",
        "type": "t_array(t_contract(NftAuction)8526)dyn_storage"
      }
    ],
    "types": {
      "t_address": {
        "encoding": "inplace",
        "label": "address",
        "numberOfBytes": "20"
      },
      "t_array(t_contract(NftAuction)8526)dyn_storage": {
        "base": "t_contract(NftAuction)8526",
        "encoding": "dynamic_array",
        "label": "contract NftAuction[]",
        "numberOfBytes": "32"
      },
      "t_contract(NftAuction)8526": {
        "encoding": "inplace",
        "label": "contract NftAuction",
        "numberOfBytes": "20"
      },
      "t_mapping(t_address,t_mapping(t_uint256,t_address))": {
        "encoding": "mapping",
        "key": "t_address",
        "label": "mapping(address => mapping(uint256 => address))",
        "numberOfBytes": "32",
        "value": "t_mapping(t_uint256,t_address)"
      },
      "t_mapping(t_uint256,t_address)": {
        "encoding": "mapping",
        "key": "t_uint256",
        "label": "mapping(uint256 => address)",
        "numberOfBytes": "32",
        "value": "t_address"
      },
      "t_uint256": {
        "encoding": "inplace",
        "label": "uint256",
        "numberOfBytes": "32"
      }
    }
  }
}