{
  "address": "0x56E4659199Ab5317a2905EB04d0b4987dE473600",
  "abi": [
    {
      "inputs": [
        {
          "internalType": "address",
          "name": "payToken",
          "type": "address"
        }
      ],
      "name": "getOrice",
      "outputs": [
        {
          "internalType": "int256",
          "name": "amount",
          "type": "int256"
        }
      ],
      "stateMutability": "view",
      "type": "function"
    }
  ],
  "transactionHash": "0x4b0a0f07ba69ce5a900fda522a0e86f4344a72a4afeaadc5c0191c3500cf0815",
  "args": [],
  "numDeployments": 1,
  "solcInputHash": "7316c03264abdb9539ea2fb6822d0bcb",
  "bytecode": "0x6080604052348015600f57600080fd5b506103008061001f6000396000f3fe608060405234801561001057600080fd5b506004361061002b5760003560e01c80637d5ba19114610030575b600080fd5b61004a6004803603810190610045919061014a565b610060565b6040516100579190610190565b60405180910390f35b60008082905060008173ffffffffffffffffffffffffffffffffffffffff1663feaf968c6040518163ffffffff1660e01b815260040160a060405180830381865afa1580156100b3573d6000803e3d6000fd5b505050506040513d601f19601f820116820180604052508101906100d7919061024f565b5050509150508092505050919050565b600080fd5b600073ffffffffffffffffffffffffffffffffffffffff82169050919050565b6000610117826100ec565b9050919050565b6101278161010c565b811461013257600080fd5b50565b6000813590506101448161011e565b92915050565b6000602082840312156101605761015f6100e7565b5b600061016e84828501610135565b91505092915050565b6000819050919050565b61018a81610177565b82525050565b60006020820190506101a56000830184610181565b92915050565b600069ffffffffffffffffffff82169050919050565b6101ca816101ab565b81146101d557600080fd5b50565b6000815190506101e7816101c1565b92915050565b6101f681610177565b811461020157600080fd5b50565b600081519050610213816101ed565b92915050565b6000819050919050565b61022c81610219565b811461023757600080fd5b50565b60008151905061024981610223565b92915050565b600080600080600060a0868803121561026b5761026a6100e7565b5b6000610279888289016101d8565b955050602061028a88828901610204565b945050604061029b8882890161023a565b93505060606102ac8882890161023a565b92505060806102bd888289016101d8565b915050929550929590935056fea264697066735822122021f0df42c9a42a27f06b52415e6e64a5fa473d62fb1e3db7aaa82dfdd772138164736f6c634300081c0033",
  "devdoc": {
    "kind": "dev",
    "methods": {},
    "version": 1
  },
  "userdoc": {
    "kind": "user",
    "methods": {},
    "version": 1
  },
  "storageLayout": {
    "storage": [],
    "types": null
  }
}